:020000040800F2
:10000000C80B0020BD010008612C00083D28000835
:100010005D2C0008AD0600080D350008000000004A
:100020000000000000000000000000000135000892
:10003000B106000800000000652C00080535000826
:10004000D7010008D7010008D7010008D701000830
:10005000D7010008D7010008D7010008D701000820
:10006000D7010008D7010008D7010008D701000810
:10007000D7010008D7010008D7010008D701000800
:10008000D7010008D7010008D7010008D7010008F0
:10009000D7010008D7010008D7010008D7010008E0
:1000A000D7010008D7010008D7010008D7010008D0
:1000B000D7010008D7010008D7010008D7010008C0
:1000C000D7010008D7010008D7010008D7010008B0
:1000D000D7010008D7010008D7010008D7010008A0
:1000E000D7010008D7010008D701000800F002F886
:1000F00000F055F814A696E8000CB244B344DA4573
:1001000001D100F04CF8BAE80F000FA696E83000D5
:10011000A5EB040504EB0607AAEB0704A7F101070A
:100120004FEA15154FEA3414A4F10104AC4201D38F
:1001300000F035F813F0010F18BFFB1A43F001036C
:1001400000F001F8DBE718477C4900009C490000FB
:10015000103A24BF78C878C1FAD8520724BF30C8F3
:1001600030C144BF04680C60704700007047000055
:100170000023002400250026103A28BF78C1FBD8B0
:10018000520728BF30C148BF0B607047642900F098
:100190007D80002070471FB51FBD10B510BD00F059
:1001A000C8F91146FFF7F7FF03F0B2F900F0E6F9DE
:1001B00003B4FFF7F2FF03BC00F0EEF909488047F3
:1001C00009480047FEE7FEE7FEE7FEE7FEE7FEE739
:1001D000FEE7FEE7FEE7FEE704480549054A064B51
:1001E0007047000009350008ED000008C805002030
:1001F000C80B0020C8070020C80700200FB41CB59A
:10020000074B06AA7B4469460090059800F047F921
:100210000020694600F056F91CBC5DF814FB000094
:10022000BD0200002DE9F0410E4604460020206288
:100230002046E168884730B3252805D0D4E901215C
:100240009047206A401CF2E7E16820460027884773
:10025000050018D0A5F14100192802D820354FF427
:1002600000673246294620462760FFF78FFF40B1DE
:10027000012804D0F61D26F007060836D8E7361DFB
:10028000D6E72846DAE7206ABDE8F0812DE9F0419B
:100290000646002410687529314616A510D0AFF324
:1002A0000080002802DA404213A507E031688A077F
:1002B00001D512A502E0490704D511A5012401E0EA
:1002C000AFF3008000210A2206F1240709E0B0FB09
:1002D000F2FCB0FBF2F302FB1C00303078541846FD
:1002E000491C0028F3D123462A463046BDE8F04198
:1002F00000F077B8000000002D0000002B00000087
:1003000020000000032A40F2308010F0030C00F0BF
:10031000158011F8013BBCF1020F624498BF11F83F
:1003200001CB00F8013B38BF11F8013BA2F10402F8
:1003300098BF00F801CB38BF00F8013B11F0030370
:1003400000F0C580083AC0F0088051F8043B083A34
:1003500051F804CBA0E80810F5E7121D5CBF51F876
:10036000043B40F8043BAFF30080D20724BF11F8F0
:10037000013B11F801CB48BF11F8012B24BF00F855
:10038000013B00F801CB48BF00F8012B70474FF04C
:10039000000200B5134694469646203922BFA0E8D5
:1003A0000C50A0E80C50B1F12001BFF4F7AF0907E1
:1003B00028BFA0E80C5048BF0CC05DF804EB8900D2
:1003C00028BF40F8042B08BF704748BF20F8022B15
:1003D00011F0804F18BF00F8012B7047704770472D
:1003E00070472DE9F0470D4699469246044600F1C4
:1003F00024080168880604D5E06921F01001216015
:1004000000E00120A84201DD471B00E00027A169B0
:100410007A1902EB0900081AA0612078C00602D4FC
:100420002046AFF30080002608E0D4E901211AF845
:1004300006009047206A401C761C20624E45F4DB83
:100440002078C0060AD52046AFF3008006E0D4E944
:10045000012130209047206A401C2062381EA7F1FD
:100460000107F4DC07E0D4E9012118F80500904702
:10047000206A401C2062281EA5F10105F3DC2046FD
:10048000AFF300802078000602D50220BDE8F08797
:100490000120FBE701694A1C02610878704700B53A
:1004A0008FB0CDE901310021059105497944CDE9AD
:1004B000031011466846FFF7B5FE0FB000BD0000FF
:1004C000E5FFFFFF0A6802F8010B0A60704710B5EC
:1004D000203AC0F00B80B1E81850A0E81850B1E8FD
:1004E0001850A0E81850203ABFF4F5AF5FEA027C3C
:1004F00024BFB1E81850A0E8185044BF18C918C06C
:10050000BDE810405FEA827C24BF51F8043B40F80C
:10051000043B08BF7047D20728BF31F8023B48BFF1
:1005200011F8012B28BF20F8023B48BF00F8012B2F
:100530007047754600F02CF8AE46050069465346F4
:1005400020F00700854618B020B5FFF745FEBDE84E
:1005500020404FF000064FF000074FF000084FF02A
:10056000000BAC46ACE8C009ACE8C009ACE8C00977
:10057000ACE8C00921F007018D46704710B504466C
:10058000AFF300802046BDE81040FFF711BE000029
:10059000004870471800002001491820ABBEFEE754
:1005A0002600020070470000B0B50446006881686C
:1005B000C90709D0816821F00101816000F094FD34
:1005C00021688968C90701D10020B0BD054602E055
:1005D0008068C007F8D000F087FD411B2068032920
:1005E000F6D38168C907F3D0A06A40F01000A0627A
:1005F000E06A40F00100E0620120B0BDB0B582B019
:1006000004460020019021688A68D2074BD188688F
:1006100040F00100886040F21400C2F2000000685F
:100620004DF68361C4F21B31A0FB0101880C0190DF
:100630000198A0B1019801380190019878B1019812
:1006400001380190019850B101980138019001984A
:1006500028B101980138019001980028EAD100F0F2
:1006600043FD21688968C9071CD1054603E000BF26
:100670008068C00716D100F037FD411B20680329B0
:10068000F6D38168C907F3D1A06A40F01000A062D8
:10069000E06A40F00100E062002084F824000120BC
:1006A00002B0B0BD002002B0B0BD0000FEE7000007
:1006B0007047000070B582B004460020019094F8A5
:1006C0002400012802D1022002B070BD012084F86C
:1006D00024002046FFF768FF2046FFF78FFF28B170
:1006E000002184F8241002B070BD00BF0646A06A45
:1006F00041F2021188430230A06240F21400C2F2BB
:1007000000000568022001F079F8B5FBF0F0400028
:1007100001900198A8B100BF01980138019001989B
:1007200078B1019801380190019850B101980138D1
:100730000190019828B10198013801900198002892
:10074000EAD12068816841F00801816000F0CCFCAA
:1007500021688A6812070FD4886840F00400886016
:1007600000F0C2FC21688968490715D401216FF0A7
:100770000302304622E000BF054602E08868000719
:10078000EAD500F0B1FC401B21680B28F6D388683D
:100790000007F3D50EE000BF054602E08068400781
:1007A000E4D500F0A1FC411B20680B29F6D3816839
:1007B0004907F3D5012010216FF01202A36A1A40F5
:1007C0001143A162002184F8241002B070BD000022
:1007D00070B581B00022009290F82420012A03D144
:1007E0000221084601B070BD4A680123062A02EBC7
:1007F000820E80F8243007D8D0F800C06FF00403D0
:100800000CF134060CE000BFD0F800C00C2A87BF02
:100810000CF12C066FF040030CF130066FF0220350
:100820000EEB03021F23346803FA02F50B6824EA77
:10083000050503FA02F22A433260092B03EB430257
:100840001AD9DCF80C601E3A072589689540AE433A
:10085000914023F001023143102ACCF80C1015D13D
:1008600042F20041C4F201018C4517D0816A41F087
:100870002001816201210AE0DCF810300726896836
:100880009640B34391401943CCF810100021002248
:1008900080F82420084601B070BD00BF89680902B5
:1008A000F4D4DCF80810102B41F40001CCF8081047
:1008B000ECD140F21401C2F2000109684DF68362E6
:1008C000C4F21B32A1FB0212910C01EB8101490021
:1008D000009100990029D9D000990139009100991F
:1008E0000029D3D000990139009100990029CDD079
:1008F00000990139009100990029C7D00099013968
:100900000091009900294FF00001E5D1BFE70000F8
:100910000068C06C70470000002804BF01207047C9
:10092000B0B50446806A28B121688868C0070CD138
:1009300015E000BF0020E06284F82400204600F0AB
:1009400097F821688868C00709D0886820F00100FE
:10095000886000F0C9FB21688A68D20726D1A06AA6
:10096000C0063AD4A06A41F2021290430230A0625B
:10097000E069D4E9013240EA030C531EB3FA83F371
:100980005D091346B2F5807F18BF2B02207D257BC1
:1009900001284CEA45002CD135B3A56A45F0200565
:1009A000A562E56A45F00105E56222E0054602E040
:1009B0008868C007D3D000F097FB401B216803284C
:1009C000F6D38868C007F3D0A06A40F01000A06298
:1009D000E06A40F00100E062A06AA06A40F0100006
:1009E000A0620120B0BD00BFA56903EB4533A3F5AC
:1009F000C0534D68B2F5807F25F4694543EA05038D
:100A00004B608B684FF2FD75CFF6E17503EA050385
:100A100043EA00038B6001D0012A07D12269002339
:100A2000CFF6F07303EB025201E000BF0022CB6A65
:100A300023F470031A43CA62896840F6FE62CFF657
:100A40001F721140814207D10020E062A16A012299
:100A500062F30101A162B0BDA06A40F0100020F075
:100A60000200A062E06A40F00100E0620120B0BD37
:100A700080B586B0014640F60000C4F20100096866
:100A800000F5E05291424FF00001CDE90411CDE9AB
:100A9000021101D006B080BD41F21801C4F202017A
:100AA0000A6842F400720A600A6802F40072019255
:100AB000019A0A6842F004020A60096801F0040120
:100AC00001910199062102910321039102A900F0ED
:100AD000F7F906B080BD00002DE9F04182B0002793
:100AE0000D460446019700F0FFFA21688A68D20596
:100AF00044D406464868C00503D4C86A10F4700F91
:100B000046D040F21400C2F20000076842F2924858
:100B10000220C1F2492800F071FE216844F6241336
:100B20000A69B7FBF0F0C2F292431A4206D1CA68D2
:100B300044F62413C0F292031A425BD00A6912EA07
:100B4000080F07D1CA6842F29243C0F249031A4221
:100B500000F0C0800A6949F24923C0F224031A4216
:100B60004FF0FC0254D1CF681F4208BF5422019BB2
:100B700002FB00F7BB4250D3C3E000BFA06A40F0C5
:100B80002000A06284F82470012002B0BDE8F0814A
:100B90000868800700F1B580681C00F0A880FDB9E6
:100BA0000868800770D50868800700F1AA80086887
:100BB000800769D50868800700F1A380086880076E
:100BC00062D50868800700F19C80086880075BD5C3
:100BD00008688007E4D594E00868800700F19180F8
:100BE00000F082FA801B2168A842F5D908688007C6
:100BF000F2D449E00A6912EA080F4FF0290207D13E
:100C0000CB6842F29247C0F249073B4208BF142228
:100C1000019B02FB00F7BB4273D2681C52D05DBB44
:100C20000198B84230D30198013001900198B84240
:100C300067D20198B84227D30198013001900198FA
:100C4000B8425ED20198B8421ED30198013001909B
:100C50000198B84255D20198B84215D30198013095
:100C600001900198B842DBD34BE000BF01980130FE
:100C700001900198B84235D200F036FA801BA842A4
:100C8000F4D90198B842F1D2A06A40F00400A06201
:100C9000002084F82400032002B0BDE8F08100BFEA
:100CA0000198013001900198B8422AD20198013090
:100CB00001900198B84224D2019801300190019826
:100CC000B8421ED20198013001900198B842E7D392
:100CD00017E000BF5422019B02FB00F7BB429CD3EC
:100CE0000FE000BF21680CE00868800709D408689D
:100CF000800706D4086880075CBF08685FEA8070D8
:100D0000F2D56FF012000860A06A40F40070A06293
:100D1000886800F46020B0F5602F01D1207B18B105
:100D2000002002B0BDE8F081A06A20F48070A062CB
:100D3000A06AC004F4D4A06A40F00100A0620020C0
:100D400002B0BDE8F081000010B5044690F8240020
:100D5000012804BF022010BD012084F82400204691
:100D6000FFF74CFC20B1002084F82400012010BDC6
:100D700042F2044C2068A16AC4F2010C40F2013234
:100D800091430CF57F7201F580719042A16229D0E8
:100D9000A16A21F48011A1624168490504D5A16AC4
:100DA000012363F30D31A162A16A0023C9044FF04E
:100DB000000144BFE16A21F00601E1626FF0020127
:100DC00084F824300160816801F46021B1F5602F5E
:100DD0001BD1904214D0816841F4A00181600020B1
:100DE00010BD00BFDCF8001011F4702FD0D0A16A44
:100DF00041F48011A162DCF800104905CFD4D3E79B
:100E0000DCF8001011F4702FE5D0816841F48011F6
:100E10008160002010BD0000B0B5044690F82400A9
:100E2000012804BF0220B0BD0121206884F82410ED
:100E30008168C90709D0816821F00101816000F053
:100E400053F921688968C9070ED1214651F8280F46
:100E500041F2011220EA0202002042F001020A607F
:100E6000002184F82410B0BD054602E08068C00768
:100E7000EBD000F039F9411B20680329F6D38168D3
:100E8000C907F3D0A06A214640F01000A06251F8D3
:100E90002C2F0120E1E70000B0B5044600F024F952
:100EA000054640F20400C2F200000078611C18BF41
:100EB000044400BF00F018F9401BA042FAD3B0BDB3
:100EC0002DE9F04F82B00E68002E00F0FD8041F257
:100ED0000042C4F20102042340F2004E904208BFD7
:100EE00003234FF6FF7CC4F2010E0093002401237C
:100EF000C1F2100C4FF0000A4FF000094BE000BFA8
:100F000041F20002C4F20102009F904208BF022792
:100F100004F00C030F229A402BEA020207FA03F3B3
:100F20004FEA9A051A4346F825204E6840F20C45D0
:100F3000F202DEF8082054BF22EA080242EA080260
:100F4000C4F20105CEF808202A68B30254BF22EA91
:100F5000080242EA08022A60B303DEF8042054BF04
:100F600022EA080242EA0802F303CEF80420DEF87F
:100F700000204FF0010354BF22EA080242EA0802AF
:100F8000CEF800200E680AF1010A36FA0AF204F1DE
:100F9000040400F0998003FA0AFB16EA0B08F1D06A
:100FA0004E68664512DC122E56D8DFE806F0350B87
:100FB0004D49555555555555555555555555554505
:100FC000510000BFD1F80C9046E000BF4FF6FF7211
:100FD000C1F2210296420FDC0022C1F211029642B8
:100FE0001AD00022C1F21202964215D00022C1F29C
:100FF0002102964210D02FE00022C1F22202964236
:101000000AD00022C1F23102964205D00022C1F27C
:101010003202964220D100BF8A684AB1012A14BF29
:10102000C0F814B0C0F810B04FF0080914E000BFC9
:101030004FF0040910E000BFCA6802F104090BE098
:101040004FF0000908E000BFCA6802F1080903E098
:10105000CA6802F10C0900BF02462646B8F5807F37
:1010600024BF0432203E17680F25B54027EA050546
:1010700009FA06F635431560CA79D2067FF582AFC4
:1010800041F21803C4F202031A68AEF57E7642F00C
:1010900001021A601A6802F001020192019A2AF014
:1010A000030256F802B040F60002C4F20102904278
:1010B00008D040F60042C4F2010290427FF420AF13
:1010C000012725E7002723E702B0BDE8F08F0000E5
:1010D0008068084018BF012070470000002A08BF40
:1010E000090401617047000040F2C050C2F20000E4
:1010F00000687047002804BF01207047F0B581B038
:10110000044690F83D0028B9002084F83C002046B1
:1011100000F09AFA242084F83D002068016821F04C
:1011200001010160016841F400410160016821F49E
:101130000041016000F03EFD636848F2A16CC0F21E
:10114000010C40F60011C0F23D0163453CBF48F27E
:101150008041C0F21E01884202D2012001B0F0BDE0
:101160004DF68361C4F21B31A0FB01122168970C7C
:10117000D1F804E04FF496762EF03F0545EA92450B
:101180004D60774348F638160D6AC0F24106A7FB5A
:10119000067625F03F07634538BF960C721C3A432C
:1011A0000A62CA6948F2A0664CF6FF77C0F20106EF
:1011B000B34222EA07020BD801385B00B0FBF3F020
:1011C00001306FF31F30042898BF04201BE000BFDC
:1011D000A768013857B119277B43B0FBF3F0013002
:1011E0006FF31F3070B100F5804007E003EB43035D
:1011F000B0FBF3F001306FF31F3018B100F5004081
:1012000001E000BF01201043C8610868D4E907234A
:1012100020F0C000104318430860886848F2FF328D
:1012200004F10C0790438CCF18431043A6698860E3
:10123000C86820F0FF0038433043C860086840F0B9
:101240000100086000202021206484F83D10206304
:1012500084F83E0001B0F0BD2DE9F04F83B01E468A
:10126000924688460446FFF73FFF94F83D10202938
:1012700024D12168054600BF886980071AD5FFF789
:1012800033FF401B21681A28F6D388698007F3D5FD
:1012900000202021206384F83D1084F83E00216C5A
:1012A00041F02001216484F83C00022003B0BDE835
:1012B000F08F00BF94F83C00012803D1022003B056
:1012C000BDE8F08F4FF0010984F83C900868C00732
:1012D00003D1086840F0010008600868002720F486
:1012E00000600860242084F83D000020CFF6FF70E5
:1012F0002764E06208F0FE08BAF1010F88BFD1460A
:101300004FF0A00A4FF0200B04E000BF01374F451B
:1013100000F0A2800868002240F480700860204637
:101320004FF001113346009501F0E8FA21680028DA
:1013300056D1C1F81080FFF7D7FE21684B694A6982
:1013400094F83D50A02D054605D013F0020008BFCB
:1013500012F480601AD084F83DB048690A688007AA
:1013600042F400720A6045D46FF48060486100BFA7
:1013700088698007CAD5FFF7B7FE401B21681A2885
:10138000F6D388698007F3D54AE000BFB6B100BF45
:10139000FFF7AAFE401BB04288BF84F83DA0216839
:1013A0004A69486994F83D30A02BD4D012F002026B
:1013B00008BF10F48060EBD0CDE700BFFFF794FECC
:1013C00084F83DA021684A69486994F83D30A02B13
:1013D000C1D012F00202BED110F48060EED0BAE7A4
:1013E0000868C00544BF4FF400702064032003B0B8
:1013F000BDE8F08F00200290486902908869029051
:101400000298886901E000BF806980071AD5FFF75C
:101410006BFE411B20681A29F6D381698907F3D531
:1014200000202021206384F83D1084F83E00216CC8
:1014300041F02001216484F83C00012003B0BDE8A4
:10144000F08F00BF202084F83D00002084F83C008D
:1014500003B0BDE8F08F00BF202084F83D000020DD
:1014600084F83C00012003B0BDE8F08F2DE9F04383
:1014700083B01E46174689460446FFF735FE94F8AA
:101480003D10202924D10546206800BF81698907C5
:101490001AD5FFF729FE411B20681A29F6D3816966
:1014A0008907F3D500202021206384F83D1084F8BB
:1014B0003E00216C41F02001216484F83C000220B0
:1014C00003B0BDE8F08300BF94F83C10012903D1BC
:1014D000022003B0BDE8F083012184F83C100168CC
:1014E000C90703D1016841F001010160016840F2C0
:1014F000020821F400610160212184F83D101021CF
:1015000084F83E100021216467626685618DC0F217
:1015100001082185A8F10211E162E16A0A9E11F534
:10152000803F18BF01291DD1016841F4807101601D
:1015300020464FF0011100223346009501F0DEF9FC
:1015400050B120680068C00544BF4FF400702064AB
:10155000012003B0BDE8F0832069B0F5804F07D1CA
:10156000FE2015E00829DFD0216B1229DCD0DFE74F
:10157000062000EAD9102168F030086108F1060160
:10158000204632462B4601F09FFA0028E0D1FF208A
:10159000216800EA090008612046414632462B4690
:1015A00001F092FA0028D3D100200290206841690E
:1015B000029180690290029806E000BF2046314601
:1015C0002A4601F03DF918BB208D68B3204631460C
:1015D0002A4601F0E5FAD8B9606A2168024612F895
:1015E000013B0B616262628D013A6285228D531E5E
:1015F00023854F697F07E1D51B04DFD04378023094
:101600000B616062608D01386085901E2085D5E792
:10161000206C04289CD12068016841F400710160AD
:10162000012003B0BDE8F0832068016841F4007137
:101630000160202084F83D00002084F83E0084F8FA
:101640003C0003B0BDE8F08310B586B0016845F2F8
:101650000040C4F2000081424FF00001CDE90411C6
:10166000CDE9021102D006B010BD00BF41F218044E
:10167000C4F20204216800F5384041F008012160FD
:10168000216801F0080101910199C0210291122104
:1016900003910321059102A9FFF712FC606840F451
:1016A00000106060606800F400100190019806B0BE
:1016B00010BD000040F2040040F2C051C2F2000030
:1016C000C2F2000100780A68104408607047000008
:1016D00080B542F20000C4F20200016841F010013E
:1016E0000160032000F07AF80F2000F005F800F008
:1016F00027F8002080BD000070B540F20406C2F259
:10170000000640F214013278C2F200014FF47A73FD
:101710000968B3FBF2F20446B1FBF2F1084600F0AF
:1017200071FC0F2C4FF0010508D838B94FF0FF308D
:1017300021460022002500F025F87460284670BD7F
:1017400082B041F21800C4F202000168022241F0A6
:1017500001010160016801F00101019101994168F5
:1017600041F080514160406800F080500090009846
:101770000420C4F20100016862F31A61016002B042
:101780007047000010B54EF60C5CCEF2000CDCF891
:101790000030C3F3022E8EF00704042C28BF04246B
:1017A000BEF103034FF0FF3E0EFA04F438BF0023EE
:1017B000A14399400EFA03F39A43114300F00F023C
:1017C00000F160430901043A03F5644362440028D0
:1017D00048BF02F10C03197010BD00004EF60C5109
:1017E000CEF200010A684FF6FF031A4060F30A22A6
:1017F00042F0806040F0FD7008607047012821D001
:1018000002280DD0102808D141F20401C4F20201CF
:101810000A6851F8040CC00134D40020704700BF9E
:1018200080B500F0DBF941F20401C4F2020109685D
:101830000222C1F3813102EB4101B0FBF1F0BDE8BE
:101840008040704741F20400C4F20200C16940F2D6
:1018500002320A40B2F5817F04BF4FF40040704766
:1018600001F44071B1F5407F18D0B1F5007F1CBF85
:1018700000207047006A49F64041800701EAE070A5
:10188000704700BFC2F3834015A3185CD2030DD488
:1018900040F60012C0F23D02504313E050F8040C31
:1018A0004FF22441800301EAE07070470A6810A3F8
:1018B000C2F340429A5C41F20023C0F27A03B3FBC8
:1018C000F2F250430968490248BF70474AF6AB211B
:1018D0004000CAF6AA21A0FB01014808704700BFDA
:1018E00002030405060708090A0B0C0D0E0F101061
:1018F000010200002DE9F04182B00446007841F277
:101900001C06C007C4F202064AD030685FEAC0086D
:1019100008D4306840F080503060306800F080506B
:101920000190019847F20007C4F200073868C0052B
:1019300012D4386840F480703860FFF7D5FB054654
:101940003868C00508D4FFF7CFFB401B6428F7D9DF
:10195000032002B0BDE8F081706810F4407012D02E
:10196000616801F4407188420DD0706840F24042D5
:10197000C4F24222012320F4407113600023C00707
:101980001360716026D17068616820F4407008436C
:10199000B8F1000F706003D4306820F080503060E0
:1019A0002068810707D556F8181CA26821F4404129
:1019B000114346F8181CC00607D556F8180CE16804
:1019C00020F48000084346F8180C002002B0BDE85F
:1019D000F08100BFFFF788FB054641F2883700BF62
:1019E00070688007CFD4FFF77FFB401BB8424FF0F1
:1019F0000300F5D9EAE70000002804BF0120704782
:101A00002DE9F04381B042F20008C4F20208044616
:101A1000D8F800000D4600F0070081420CD9D8F834
:101A2000000020F007002843C8F80000D8F80000A4
:101A300000F00700A8426CD1206841F20409810738
:101A4000C4F2020917D5410705D5D9F8001041F4B1
:101A5000E061C9F80010010705D5D9F8001041F47C
:101A60006051C9F80010D9F80010A26821F0F00107
:101A70001143C9F80010C00742D1D8F8000000F0A7
:101A8000070085420CD2D8F8000020F00700284358
:101A9000C8F80000D8F8000000F00700A84238D1CC
:101AA0002068410707D5D9F80010E26821F4E06109
:101AB0001143C9F80010000708D5D9F800002169C2
:101AC00020F4605040EAC100C9F80000D9F80020B5
:101AD00002F00C00082841F20020C0F27A004DD13B
:101AE00044F6AA23C2F38341C0F60003595CD20333
:101AF00038D440F60010C0F23D0048433EE000BF3D
:101B0000606859F8041C022808D0012826D18903EE
:101B100006D4012001B0BDE8F08300BF8901F8D5EB
:101B2000D9F8001021F003010843C9F80000FFF7BD
:101B3000DBFA064641F28837D9F80000616800F008
:101B40000C00B0EB810F98D0FFF7CEFA801BB842A3
:101B5000F2D9032001B0BDE8F08300BF8907D8D5D2
:101B6000DEE700BFD9F8002044F6A823C2F34042C4
:101B7000C0F600039A5C4843B0FBF2F0D9F80010BD
:101B800043F63452C1F30311C0F60002515C40F237
:101B9000140220FA01F140F20800C2F200000068CD
:101BA000C2F200021160FFF7A7FD002001B0BDE8FE
:101BB000F083000040F2140041F20401C2F2000080
:101BC000C4F202010068096843F64452C1F30221DD
:101BD000C0F60002515CC8407047000040F214009B
:101BE00041F20401C2F20000C4F202010068096877
:101BF00043F64452C1F3C221C0F60002515CC84012
:101C000070470000002804BF012070472DE9F04113
:101C100082B00446007841F20006C007C4F2020612
:101C20000CD0706800F00C00042840F0818030680F
:101C3000800303D56068002800F046812078800783
:101C40001BD5706810F00C0F09D0706800F00C0004
:101C5000082840F087807068C00300F183803068F6
:101C6000800703D52069012840F02E813068616922
:101C700020F0F80040EAC10030602078000713D45B
:101C8000207840072CD4E569002D00F01881706899
:101C900000F00C00082840F0A780012D40F00481DE
:101CA000012002B0BDE8F081A069002800F0848026
:101CB0000020C4F242200121C0F88014FFF714FA7A
:101CC000054600BF706A800700F1B280FFF70CFA8A
:101CD000401B0228F6D9032002B0BDE8F08100BF06
:101CE000F0695FEAC00808D4F06940F08050F06104
:101CF000F06900F080500090009847F20007C4F2AD
:101D000000073868C00549D4386840F480703860EE
:101D1000FFF7EAF9054600BF3868C0053ED4FFF773
:101D2000E3F9401B6428F7D9032002B0BDE8F08135
:101D3000706800F00C00082803D17068C0033FF5FC
:101D400076AF61683068002900F00C81B1F5A02FF2
:101D500000F00081B1F5803F40F01A8140F48030FE
:101D60001CE100BF2069002840F20000C4F24220BC
:101D700000F0888001210160FFF7B6F9054600BF39
:101D8000306880073FF572AFFFF7AEF9401B0228BD
:101D9000F6D9032002B0BDE8F08100BFE168306AE7
:101DA000002900F09D80052900F09280012940F073
:101DB000AF8040F00100B1E00020C4F242200021D9
:101DC000C0F88014FFF790F9054600BF706A8007DD
:101DD0007FF556AFFFF788F9401B0228F6D903209C
:101DE00002B0BDE8F08100BF0027C4F24227002006
:101DF0003866FFF779F9022D05460DD1306880016C
:101E000040F1DE80FFF770F9401B02284FF003001D
:101E1000F4D902B0BDE8F081306880014FD5FFF7FA
:101E200063F9401B02284FF00300F5D9F1E700BF2A
:101E300040F21400C2F20000006844F6D351C1F22F
:101E40006201A0FB0101480A019000BF00BF019898
:101E5000411E002801913FF413AF00BF0198411EBD
:101E6000002801913FF40CAF00BF0198411E0028EB
:101E700001913FF405AF00BF0198411E0028019178
:101E8000E4D1FDE600210160FFF72EF9054600BF11
:101E9000306880077FF5F1AEFFF726F9401B022876
:101EA0004FF00300F4D9B4E77068216A00F480327F
:101EB0008A4209D1616A00F47010884204D100207E
:101EC00002B0BDE8F08100BF012002B0BDE8F081A2
:101ED00040F004003062306A40F001001EE000BFB4
:101EE00020F001003062306A20F004003062FFF719
:101EF000FBF8054641F28837306A800720D5FFF7A6
:101F0000F3F8401BB8424FF00300F5D981E700BF5A
:101F100020F001003062306A20F004003062FFF7E8
:101F2000E3F8054641F28837306A800708D4FFF7A6
:101F3000DBF8401BB842F7D9032002B0BDE8F081BE
:101F4000B8F1000F3FF59FAEF06920F08050F061CE
:101F500099E600BF40F480203060306840F4803063
:101F60001CE000BF20F480303060306820F4802016
:101F70003060FFF7B9F80546306880037FF55EAE44
:101F8000FFF7B2F8401B64284FF00300F4D940E794
:101F900020F480303060306820F480203060FFF71B
:101FA000A3F80546306880033FF548AEFFF79CF87C
:101FB000401B6428F6D9032002B0BDE8F08100BFC1
:101FC000206AB0F5803F05D17168A26821F4003124
:101FD000114371607168626A21F4741111430843FE
:101FE000706001203866FFF77FF804463068800192
:101FF0003FF565AFFFF778F8001B02284FF00300AC
:10200000F4D906E7411E0020B0EB116F1CBF012080
:1020100070474EF21002CEF2000251604EF623518C
:10202000CEF20001F0230B70072190601160704721
:1020300090F83C20012A4FF0020236D010B580F80B
:102040003D200268D2F804E0D2F808C00C682EF0F7
:102050007003234340F2FF74C4F20004A2425360B1
:102060000ADCB2F1804F13D040F20043C4F2000307
:102070009A420DD011E000BF42F60043C4F20103C2
:102080009A4205D040F60003C4F200039A4204D1FC
:1020900049682CF08003194391600121002280F8E7
:1020A0003D1080F83C20BDE810401046704700000D
:1020B000002804BF0120704710B590F83D1031B9D9
:1020C000002180F83C10044600F070F82046022100
:1020D00080F83D10016840F2FF740B68C4F2000400
:1020E00042F6004CA142C4F2010C15DCB1F1804F64
:1020F0001AD040F20042C4F20002914214D0A14230
:1021000018DCB1F1804F1DD040F20042C4F2000251
:10211000914217D01AE000BF614505D040F6000299
:10212000C4F200029142EAD1826823F070031343A3
:10213000A142E6DD614505D040F60002C4F200028E
:10214000914203D1026923F440731343846923F05D
:102150008002D0F804E0C368224361450A60CB6284
:10216000C1F828E002D14269CCF8302001224A614E
:102170000B69DB0703D00B6923F001030B6180F8C7
:10218000462080F83E2080F83F2080F8402080F8EC
:10219000412080F8422080F8432080F8442080F8D5
:1021A000452080F83D20002010BD000082B000686E
:1021B000B0F1804F14D042F60041C4F201018842D0
:1021C0001BD141F21800C4F20200016841F4006121
:1021D0000160006800F400600190019802B070474F
:1021E00041F21800C4F20200416841F0010141606F
:1021F000406800F001000090009802B070470000B5
:1022000090F83D1001291CBF01207047022180F881
:102210003D10006840F2FF71C4F20001884209DC01
:10222000B0F1804F12D040F20041C4F20001884268
:102230000CD012E042F60041C4F20101884205D000
:1022400040F60001C4F20001884206D1816801F025
:102250000701062904BF00207047016841F0010111
:10226000016000207047000090F83C20012A4FF0E8
:1022700002026CD080B580F83D20D0F800C04FF647
:102280007772DCF8083023EA0202CCF808200B68E9
:102290004F2B29DC1F2B45DD202B46D0302B44D083
:1022A000402B40F0AF80D1F804E0C968DCF8203062
:1022B000DCF8202022F00102CCF82020DCF81820E5
:1022C00022F0F00242EA011123F00A0242EA0E0271
:1022D000CCF81810CCF82020DCF8081041F04701A9
:1022E00021F0300128E000BF6F2B33DDB3F5005F34
:1022F00074D0B3F5805F21D0702B40F08380D1E99A
:1023000001E3C968DCF8082043EA0E0322F47F42A7
:1023100043EA01211143CCF80810DCF8081041F021
:10232000770109E00BB1102B6CD1DCF8081021F01B
:102330007001194341F00701CCF808100022012177
:1023400080F83D10002180F83C10BDE88040104628
:10235000704700BF502B21D0602B53D1D1F804E03F
:10236000C968DCF82030DCF8202022F01002CCF81C
:102370002020DCF8182022F4704242EA013123F0D8
:10238000A00242EA0E12CCF81810CCF82020DCF89B
:10239000081041F0670121F01001CDE7D1F804E009
:1023A000C968DCF82030DCF8202022F00102CCF8EB
:1023B0002020DCF8182022F0F00242EA011123F07C
:1023C0000A0242EA0E02CCF81810CCF82020DCF801
:1023D000081041F0570121F02001ADE7D1E901E3F8
:1023E000C968DCF8082043EA0E0322F47F4243EA7E
:1023F00001211143CCF80810DCF8081041F48041A9
:102400009AE700BF01229AE780B586B00068B0F174
:10241000804F4FF00000CDE90400CDE9020001D06B
:1024200006B080BD41F21800C4F20200016841F01C
:1024300004010160006802A900F004000190019805
:102440000120029002200390059040F60000C4F2A3
:102450000100FEF735FD06B080BD000090F83C306D
:10246000012B04BF022070474FEAB202032A00F298
:10247000F1802DE9F043DFE802F003A53B7500BFD2
:10248000036842F600461D6A1A6AC4F2010622F089
:1024900001021A621A465C6852F818CFB3428E687D
:1024A000D1F800E025F0020545EA06050CD1CE681A
:1024B000D1E9057824F4407425F00C0526F00406D3
:1024C0003C43354344EA08042CF0730747EA0E07FF
:1024D0005C609F614F6809695F631D629F6947F097
:1024E00008079F619F6927F004079F61A6E000BF6E
:1024F000036842F600461D6A1A6AC4F2010622F415
:1025000080721A621A46D3F804C052F81CEFB34224
:102510008E680C6825F4007545EA06250FD1CE6853
:10252000D1E90598360240F2FF4725F44065BE43E5
:1025300035432CF4405748EA090647EA061C2EF0BA
:1025400073072743C3F804C0DF614F680969DF637D
:102550001D62DF6947F00807DF61DF6927F00407C4
:10256000DF616BE0036842F60047D3F820C01A6AC7
:10257000C4F2010722F480521A621A465C6852F8CB
:102580001C5FD1F800E08E68BB4204D14F6924F48F
:10259000804444EA87142CF4005747EA063725F4B0
:1025A000E64646EA0E265C60DE614E6809691E64F6
:1025B0001F62DF6947F40067DF61DF6927F4806726
:1025C000DF613AE0036842F600461D6A1A6AC4F207
:1025D000010622F010021A621A46D3F804C052F81B
:1025E000184FB3428E68D1F800E025F0200545EA87
:1025F00006150FD1CE68D1E905986FF0400725F098
:10260000C00507EA061635432CF4406748EA090678
:1026100047EA860C24F4E64444EA0E27C3F804C0D3
:102620009F614F6809699F631D629F6947F4006756
:102630009F619F6927F480679F61090213681943AE
:1026400011600021BDE8F043002280F83C200846DC
:10265000704700BF0121002280F83C2008467047E7
:10266000002804BF0120704710B590F83D1031B923
:10267000002180F83C10044600F070F8204602214A
:1026800080F83D10016840F2FF740B68C4F200044A
:1026900042F6004CA142C4F2010C15DCB1F1804FAE
:1026A0001AD040F20042C4F20002914214D0A1427A
:1026B00018DCB1F1804F1DD040F20042C4F200029C
:1026C000914217D01AE000BF614505D040F60002E4
:1026D000C4F200029142EAD1826823F070031343EE
:1026E000A142E6DD614505D040F60002C4F20002D9
:1026F000914203D1026923F440731343846923F0A8
:102700008002D0F804E0C368224361450A60CB62CE
:10271000C1F828E002D14269CCF8302001224A6198
:102720000B69DB0703D00B6923F001030B6180F811
:10273000462080F83E2080F83F2080F8402080F836
:10274000412080F8422080F8432080F8442080F81F
:10275000452080F83D20002010BD0000704700009B
:10276000C1B1042908D0082914BF41224022825C4B
:10277000012A05D016E000BF3F22825C012A11D158
:102780000222082910D0042914BF80F8412080F8C3
:102790003F200BE090F83E20012A03D1022280F86E
:1027A0003E2003E00120704780F84020006801F0DF
:1027B0001F010122036A8A4023EA02010162036ABF
:1027C00042F64441C4F201011A43A1F14403984284
:1027D00002620FD040F2FF71C4F20001884213DCA4
:1027E000B0F1804F1CD040F20041C4F20001884299
:1027F00016D01CE00A6842F400420A6040F2FF7101
:10280000C4F200018842EBDD42F60041C4F201014E
:10281000884205D040F60001C4F20001884206D18A
:10282000816801F00701062904BF00207047016894
:1028300041F001010160002070470000FEE7000048
:1028400070B50368044653F8140F400711D40E46C0
:10285000481C29D086BB00BF1868400527D4FEF766
:1028600043FC236853F8140F400737D51868400716
:10287000F2D5002070BD00BF18684007F9D4186871
:10288000400514D418684007F3D4186840050ED4E6
:1028900018684007EDD41868400508D41868400748
:1028A0004FF0000048BF70BD18684005E4D56FF4D4
:1028B00080601860042012E0154603E053F8140FFE
:1028C0004007D6D418684005F1D4FEF70DFC401B34
:1028D0002368B042F2D958694007EFD42020002184
:1028E0002022216384F83D2084F83E10226C10439E
:1028F0002064012084F83C1070BD00002DE9F041F7
:10290000054600681E46144601F47F0201338FB26B
:1029100042D0DDF81880B2F5803F40F087804069F2
:102920003840C01BB0FA80F04009844240F0C880B3
:102930004EB924E040693840C01BB0FA80F040092D
:10294000844240F0BD80FEF7CFFBA0EB0801286871
:10295000B142EFD941693940C91BB1FA81F1490946
:102960008C42E7D19BE000BF40693840C01BB0FA01
:1029700080F0400984424FF0000040F0A280FEF752
:10298000B3FB286841693940C91BB1FA81F1490993
:102990008C42E9D183E000BFB2F5803F24D100BF73
:1029A00041693940C91BB1FA81F149098C4240F0B3
:1029B000878041693940C91BB1FA81F149098C42CC
:1029C00040F07E8041693940C91BB1FA81F1490963
:1029D0008C4275D141693940C91BB1FA81F149096D
:1029E0008C42DDD06CE000BF81693940C91BB1FA6F
:1029F00081F149098C4263D181693940C91BB1FA1F
:102A000081F149098C425BD181693940C91BB1FA16
:102A100081F149098C4253D181693940C91BB1FA0E
:102A200081F149098C42DFD04AE000BF806938401B
:102A3000C01BB0FA80F04009844241D146B923E07E
:102A400080693840C01BB0FA80F04009844237D119
:102A5000FEF74AFBA0EB08012868B142F0D9816972
:102A60003940C91BB1FA81F149098C42E8D116E01D
:102A700080693840C01BB0FA80F0400984424FF0B2
:102A8000000018BFBDE8F081FEF72EFB28688169C1
:102A90003940C91BB1FA81F149098C42E8D10020C3
:102AA0002021286385F83D1085F83E00296C41F00F
:102AB0002001296485F83C000120BDE8F08100BFB9
:102AC0000020BDE8F0810000F0B581B00446006848
:102AD0001D4643698FB203EA0701B94202D10020C3
:102AE00001B0F0BD4169164601323CD0490512D40F
:102AF0007EB300BFFEF7F8FA411B2068B14203D94C
:102B000041693940B9422BD141693940B942E6D0D7
:102B100041694905EED5016841F4007101606FF427
:102B200080614161042000212022216384F83D203E
:102B300084F83E10226C1043206484F83C1001207D
:102B400001B0F0BD41693940B942C8D04169490579
:102B5000E1D4FEF7C9FA206841693940B942F1D0A1
:102B60002020E0E741694905D5D441693940B9429F
:102B7000B5D041694905CED441693940B942AED09A
:102B800041694905C7D441693940B942A7D0416973
:102B90004905C0D441693940B942E3D19FE70000FB
:102BA00070B50368044653F8140F000611D40E469E
:102BB000481C29D086BB00BF1868400527D4FEF703
:102BC00093FA236853F8140F000637D518680006E7
:102BD000F2D5002070BD00BF18680006F9D418684F
:102BE000400514D418680006F3D4186840050ED4C4
:102BF00018680006EDD41868400508D41868000667
:102C00004FF0000048BF70BD18684005E4D56FF470
:102C100080601860042012E0154603E053F8140F9A
:102C20000006D6D418684005F1D4FEF75DFA401BC3
:102C30002368B042F2D958690006EFD42020002161
:102C40002022216384F83D2084F83E10226C10433A
:102C50002064012084F83C1070BD0000FEE70000F5
:102C6000FEE70000704700002DE9F04186B040F615
:102C70000044C4F2010402200121002500900191CA
:102C80000390694620468DF8145004950295FEF78E
:102C900017F9204602210022FEF720FA1220FEF743
:102CA000FBF8204602210122FEF718FA40F23058C4
:102CB000C2F20008D8F80000456200BF416A13293B
:102CC00008D8416A132905D8416A132902D8416AF4
:102CD0001429F3D3002569462046CDE90155FEF7B6
:102CE000EFF8D8F800004562416A272908D8416A00
:102CF000272905D8416A272902D8416A2829F3D310
:102D000020460221FEF7E4F910B106B0BDE8F081DB
:102D1000D8F8000000214162416A4F2908D8416A71
:102D20004F2905D8416A4F2902D8416A5029F3D367
:102D300020460221FEF7CCF90028E6D020460221E9
:102D4000FEF7C6F90028F9D1002604AF002503E0FC
:102D50000135052D00F0348120460221FEF7B8F937
:102D60000028F9D0D8F80000466200BF416A272940
:102D700008D8416A272905D8416A272902D8416A1B
:102D80002829F3D320460221FEF7A2F950B1785D3D
:102D900040F08000785500BF20460221FEF798F9E8
:102DA0000028F9D120460221FEF792F90028F9D037
:102DB000D8F80000466200BF416A272908D8416A56
:102DC000272905D8416A272902D8416A2829F3D33F
:102DD00020460221FEF77CF950B1785D40F04000BA
:102DE000785500BF20460221FEF772F90028F9D17C
:102DF00020460221FEF76CF90028F9D0D8F800002F
:102E0000466200BF416A272908D8416A272905D8A8
:102E1000416A272902D8416A2829F3D32046022192
:102E2000FEF756F950B1785D40F02000785500BFAC
:102E300020460221FEF74CF90028F9D12046022154
:102E4000FEF746F90028F9D0D8F80000466200BF26
:102E5000416A272908D8416A272905D8416A2729C4
:102E600002D8416A2829F3D320460221FEF730F91F
:102E700050B1785D40F01000785500BF2046022127
:102E8000FEF726F90028F9D120460221FEF720F9A5
:102E90000028F9D0D8F80000466200BF416A27290F
:102EA00008D8416A272905D8416A272902D8416AEA
:102EB0002829F3D320460221FEF70AF950B1785DA4
:102EC00040F00800785500BF20460221FEF700F9C7
:102ED0000028F9D120460221FEF7FAF80028F9D09F
:102EE000D8F80000466200BF416A272908D8416A25
:102EF000272905D8416A272902D8416A2829F3D30E
:102F000020460221FEF7E4F850B1785D40F004005D
:102F1000785500BF20460221FEF7DAF80028F9D1E3
:102F200020460221FEF7D4F80028F9D0D8F8000096
:102F3000466200BF416A272908D8416A272905D877
:102F4000416A272902D8416A2829F3D32046022161
:102F5000FEF7BEF850B1785D40F00200785500BF32
:102F600020460221FEF7B4F80028F9D120460221BC
:102F7000FEF7AEF80028F9D0D8F80000466200BF8E
:102F8000416A272908D8416A272905D8416A272993
:102F900002D8416A2829F3D320460221FEF798F887
:102FA00000283FF4D5AE785D40F00100785500BFB1
:102FB00020460221FEF78CF80028F9D1C8E600BFB0
:102FC00040F280009DF810109DF81220C2F200001F
:102FD0004170027006B0BDE8F081000080B540F29B
:102FE000DC00C2F200004FF48061FDF7D0F9BDE8CB
:102FF000804000F035BA000040F27802C2F20002D0
:1030000050809180704700002DE9F04182B040F27D
:10301000DC40C2F200007821012244F62063FEF772
:103020001BF94FF0000418B1204602B0BDE8F08152
:1030300040F2DC454FF42E40C2F20005ADF8060028
:103040000A260DF106022846782102230096FEF793
:103050000DFA4FF400580DF106022846782102239C
:10306000ADF806800096FEF701FA4FF480570DF197
:103070000602284678210223ADF806700096FEF776
:10308000F5F94FF43040ADF806000DF10602284680
:10309000782102230096FEF7E9F94FF44840ADF895
:1030A00006000DF106022846782102230096FEF75D
:1030B000DDF90DF10602284678210223ADF806401D
:1030C0000096FEF7D3F90DF1060228467821022377
:1030D000ADF806700096FEF7C9F94FF48040ADF8E0
:1030E00006000DF106022846782102230096FEF71D
:1030F000BDF94FF40140ADF806000DF10602284677
:10310000782102230096FEF7B1F94FF47F40ADF825
:1031100006000DF106022846782102230096FEF7EC
:10312000A5F94FF42140ADF806000DF1060228463E
:10313000782102230096FEF799F94FF42640ADF866
:1031400006000DF106022846782102230096FEF7BC
:103150008DF94FF42840ADF806000DF1060228461F
:10316000782102230096FEF781F94FF47C50ADF8E8
:1031700006000DF106022846782102230096FEF78C
:1031800075F94FF42440ADF806000DF1060228460B
:10319000782102230096FEF769F94FF45340ADF809
:1031A00006000DF106022846782102230096FEF75C
:1031B0005DF90DF10602284678210223ADF806409C
:1031C0000096FEF753F94FF45540ADF806000DF1A7
:1031D00006022846782102230096FEF747F94FF4AD
:1031E0007040ADF806000DF1060228467821022352
:1031F0000096FEF73BF94FF45940ADF806000DF18B
:1032000006022846782102230096FEF72FF94FF494
:103210000850ADF806000DF1060228467821022379
:103220000096FEF723F94FF45A40ADF806000DF171
:1032300006022846782102230096FEF717F94FF47C
:103240009050ADF806000DF10602284678210223C1
:103250000096FEF70BF94FF45B40ADF806000DF158
:1032600006022846782102230096FEF7FFF80DF1AA
:103270000602284678210223ADF806800096FEF764
:10328000F5F84FF40D40ADF806000DF106022846A2
:10329000782102230096FEF7E9F84FF4A050ADF82C
:1032A00006000DF106022846782102230096FEF75B
:1032B000DDF84FF42F40ADF806000DF10602284668
:1032C000782102230096FEF7D1F84FF43850ADF87C
:1032D00006000DF106022846782102230096FEF72B
:1032E000C5F840F2DC00C2F200004FF48061FDF747
:1032F0004EF800F0B5F840F27800C2F20000C0F8D5
:1033000002400124204602B0BDE8F0812DE9F04FD3
:1033100089B040F27805C2F200056B8891F8008010
:1033200008EB03077F2F05D89C46AB884E78F7182B
:103330003F2F03D9002009B0BDE8F08F002E009088
:1033400066D02D782038B5FA85F77C09B2FA82F775
:10335000029078090790002D18BF01254868121BBC
:10336000B2FA82F20190002750094446089506906F
:10337000CDE9033104E000BF00240137B74247D252
:10338000002CF9D0DA1995B23F2DF6D80298019B9E
:10339000704303EB400030F817A002F00700012350
:1033A00003FA00F54FF4607091F8008000EA021B08
:1033B0006FEA050E0022059703E000BF0132424587
:1033C00020D20CEB02061FFA86F9B9F17F0FF5D86F
:1033D00046EA0B0640F2DC000AFA02F1B6B2C2F28B
:1033E00000000904835D0699DDE9077458BF87EA88
:1033F000040103EA0E04002918BF43EA05048455BA
:10340000DCE700BF0499039B4E78059F4446B4E770
:103410005FFA88F040F278016044C2F2000148800F
:103420005DF8240BBDE8F08F0378002B04BF00206B
:10343000704770B514460D46461C00BFD8B22946E9
:103440002246FFF763FF16F8011C884204D116F8E4
:10345000013B002BF2D10021BDE8704008467047C7
:103460002DE9F04FC1B00DF1040B40F2DC460BF139
:1034700001094FF000086FF07F050A24C2F2000630
:103480004FF0000A40F2DC008035C2F200002F1835
:103490004AF0B0008DF80500304678215A460223E4
:1034A0008DF804800094FDF7E1FF304678215A46FC
:1034B0000223ADF804800094FDF7D8FF4FF480504C
:1034C000ADF80400304678215A4602230094FDF7F7
:1034D000CDFF40208DF80400484639468022FCF795
:1034E00011FF304678215A4681230094FDF7BEFF34
:1034F000B5F5607F0AF1010AC4D141B0BDE8F08F93
:1035000070470000FEF7D6B870470000FEE70000E5
:1035100094B0FEF7DDF84FF47A70FDF7BDFC00249F
:103520000120CDE90F44CDE90D440A900E904FF4EF
:10353000E0104FF48031022513900AA80394CDE9DE
:103540000144CDE90B14CDE91151FEF75BFB28B125
:10355000EFF3108072B600BFFEE700BF0F20CDE989
:1035600004054FF48060CDE9070404A80221069405
:10357000FEF742FA20B1EFF3108072B6FEE700BF0B
:103580004FF400404FF0020A02906846CDF800A0C8
:10359000FEF7B0F920B1EFF3108072B6FEE700BF7E
:1035A000002741F21800CDE90C77CDE90A77C4F283
:1035B0000200016840F6000841F020010160016846
:1035C000C4F2010801F0200104910499016800226D
:1035D00041F00401016001684FF4047901F0040135
:1035E00004910499016841F00801016000684FF4FA
:1035F000047100F00800049004984046FDF76EFD49
:1036000008F58065284602210022FDF767FD4FF48A
:1036100084700AAECDE90A07404631460C97FDF7A3
:103620004FFC01240BA880E8900440463146CDF8B9
:103630002890FDF745FC28463146CDE90AA4CDE99E
:103640000C7AFDF73DFC40F2DC40A8F53441C2F2B3
:10365000000041F680224FF48043C0F2060280E869
:103660008600C0E90373C0E90577C0E90777FDF775
:1036700041FD28B1EFF3108072B600BFFEE700BF36
:1036800040F2305008F51051C2F200004FF6FF73BF
:103690000D97CDE90B77CDE90477472280E88600C6
:1036A000C0E90337C0E90577FEF702FD20B1EFF36B
:1036B000108072B6FEE700BF4FF480500A9040F2CF
:1036C0003050C2F200000AA9FEF7CEFD20B1EFF3A0
:1036D000108072B6FEE700BF40F23055C2F200051E
:1036E00004A92846FEF7A4FC20B1EFF3108072B6BF
:1036F000FEE700BF40F278500021C2F200004FF018
:103700008042472344F61F670791CDE90511CDE9B3
:103710000011CDE90F11CDE90D11C0E90023C0E979
:10372000021701618161FEF7C3FC28B1EFF310803D
:1037300072B600BFFEE700BF4FF48050049040F225
:103740007850C2F2000004A9FEF78EFD20B1EFF31D
:10375000108072B6FEE700BF40F27850C2F200005F
:10376000FEF77EFF20B1EFF3108072B6FEE700BFD8
:1037700040F27850C2F200006946FEF759FC18B1D9
:10378000EFF3108072B6FEE760200A9040F27850A6
:103790000024C2F200000AA90022CDE90B440E94D5
:1037A000FEF75CFE20B1EFF3108072B6FEE700BFBB
:1037B00040F2785BC2F2000B5846FEF725FE40F25D
:1037C000800008F5E051C2F2000040F82C1F4FF4D1
:1037D00080714FF46022C0E9014102210473047535
:1037E000C2610161FDF798F820B1EFF3108072B665
:1037F000FEE700BF0120CDE90A0000200C9040F256
:103800008000C2F2000000F12C070AA93846FCF73C
:10381000DFFF18B1EFF3108072B6FEE702200B90C5
:103820000AA93846FCF7D4FF20B1EFF3108072B636
:10383000FEE700BF4FF47A70FDF72EFB0021042055
:103840000D91CDE90A010C910AA940464FF00009FB
:10385000FDF736FB3846FCF72DFF2846FEF7D0FC77
:1038600058460021FEF77CFFFFF7CEFBFFF7B6FBC3
:103870000A201421FFF7C0FB40F20C010FF2804038
:10388000C2F200010122FFF7CFFDFFF7E9FD4FF47F
:10389000FA7014E040F20000C2F200004FF4AF6191
:1038A0004180404610210022FDF718FC40F28000C4
:1038B000C2F20000C0F80890FFF7D2FD3220FDF7F9
:1038C000EBFA40464FF400710022FDF707FC286830
:1038D000C0F82490416A022908D8416A022905D813
:1038E000416A022902D8416A0329F3D340464FF4C2
:1038F00000710122FDF7F2FB2868C0F82490416AAC
:10390000092908D8416A092905D8416A092902D834
:10391000416A0A29F3D340464FF400710022FDF7B3
:10392000DDFBFDF7E1FB064640464FF48071FDF7F5
:10393000CFFB28B9FDF7D8FB801B0A28F4D90FE08C
:103940002868446AFDF7D0FB064640464FF4807174
:10395000FDF7BEFB40B1FDF7C7FB801B3228F4D951
:1039600040F2E73015E000BF28684FF6FF71406A6B
:10397000001B38BF08444CF60931C8F63D51A0FB86
:1039800001014809C1F34F11B1F5FA7F88BF40F238
:10399000F51040F28001C2F200018880FFF764F95F
:1039A00040460821FDF794FB40F20001C2F20001FD
:1039B000087040460421FDF78BFB824601200490ED
:1039C000059007200690384604A90124FCF700FF63
:1039D000002840F091812868C0F82490416A31297C
:1039E00008D8416A312905D8416A312902D8416A8B
:1039F0003229F3D33846FDF7A7F938466421FDF79D
:103A00006BF83846FCF784FFADF800003846FDF748
:103A100003FA3846FDF798F938466421FDF75CF85B
:103A20003846FCF775FF06463846FDF7F5F940F2D3
:103A30008000C2F20000C680FFF7D0FABAF1000F92
:103A400000F0848040F28000C2F2000080880138DB
:103A5000092800F2AD8040F28000C2F200008068C8
:103A600030B9FDF741FB40F28001C2F200018860ED
:103A7000FDF73AFB40F28001C2F200018968401A6A
:103A8000B0F57A7F40F2CE8040F28000C2F20000B2
:103A90008078C0B9FFF7A2FA14201421FFF7ACFA1E
:103AA00040F20C019AA0C2F200010122FFF7BCFC17
:103AB000FFF7D6FC4FF47A70FDF7EEF940F2800084
:103AC000C2F20000847040F28000C2F2000002786E
:103AD000437800F10C0630468FA1FCF78FFB0A20DB
:103AE0001421FFF789FA40F20C013046C2F20001BE
:103AF0000122FFF799FC40F20001C2F200010878B0
:103B00004E88002800F0C480B6F5AF6F00F0E28068
:103B10000CD2DBF8000046631420FDF7BDF940F23B
:103B20006450864206F11406F3D90BE0DBF800007E
:103B300046631420FDF7B0F940F28B508642A6F19F
:103B40001406F3D84FF4AF60BFE000BF0F2014217C
:103B5000FFF752FA40F20C0173A0C2F200010122F9
:103B6000FFF762FC40F20000C2F200004688B6F5A2
:103B7000AF6F3FF496AE0DD2DBF800004663142021
:103B8000FDF78AF940F26450864206F11406F3D933
:103B900080E600BFDBF8000046631420FDF77CF9E7
:103BA00040F28B508642A6F11406F3D872E600BFAD
:103BB00040F280010020C2F2000188608870192064
:103BC00019214FF00009FFF717FA44F6BA2040F226
:103BD0000C01C0F60000C2F200010122FFF724FC34
:103BE00040F20000C2F200004688B6F5FA7F79D0B4
:103BF0000CD2DBF8000046631420FDF74DF9B6F552
:103C0000F07F06F11406F4D93AE000BFDBF80000BB
:103C100046631420FDF740F9F008143E4028F5D81B
:103C20002EE000BF19201921FFF7E6F944F6BA206B
:103C300040F20C01C0F60000C2F200010122FFF7C1
:103C4000F3FB40F20000C2F200004688B6F5FA7FAE
:103C500048D00BD2DBF8000046631420FDF71CF9B6
:103C6000B6F5F07F06F11406F4D909E0DBF80000A0
:103C700046631420FDF710F9F008143E4028F5D8EB
:103C800040F200014FF4FA70C2F20001488029E0CE
:103C9000B6F5FA7F1ED00BD2DBF800004663142085
:103CA000FDF7FAF8B6F5F07F06F11406F4D90AE04C
:103CB000DBF8000046631420FDF7EEF8B6F5027F4E
:103CC000A6F11406F4D24FF4FA7040F20001C2F2E9
:103CD0000001488040F28000C2F20000C088000964
:103CE0007C2805D8404610210022FDF7F7F9E3E5CE
:103CF000404610210122F8E7EFF3108072B6FEE78C
:103D000053797374656D2052656164790000000019
:103D100057656C636F6D6500543A25644320483ADB
:103D20002564252500000000212120534D4F4B45DF
:103D30002021210000000000000000000102030417
:103D4000060708090000000001020304000000004B
:103D50000000000000000000000000000000000063
:103D60000000000000000000000000000000000053
:103D70000000000C000C000C000C000C000C000CEF
:103D8000000C000C000C000C0000000C000C0000EB
:103D9000000000000000001B001B001B001B001B9C
:103DA0000000000000000000000000000000000013
:103DB0000000000000000000000080198019801938
:103DC0008019C07FC07F80190033C07FC07F00335F
:103DD0000033003300330000000000000000001E2C
:103DE000003F807580650074003C001E0007800560
:103DF000806580658075003F001E0004000400009F
:103E00000000007000D840D8C0D880D900730006E8
:103E1000000C801BC036C066C046C0068003000090
:103E2000000000000000001E003F0033003300339C
:103E3000001E000CC03CC066806380618063C03E91
:103E4000801C0000000000000000000C000C000CB2
:103E5000000C000C0000000000000000000000004A
:103E600000000000000000000000000080000001D1
:103E70000003000600060004000C000C000C000CFF
:103E8000000C000C00040006000600030001800086
:103E9000002000100018000C000C000400060006B2
:103EA00000060006000600060004000C000C0018C6
:103EB000001000200000000C002D003F001E003309
:103EC00000000000000000000000000000000000F2
:103ED0000000000000000000000000000000000CD6
:103EE000000C000C000CC0FFC0FF000C000C000C0C
:103EF000000C0000000000000000000000000000B6
:103F000000000000000000000000000000000000B1
:103F1000000000000000000C000C00040004000879
:103F20000000000000000000000000000000000091
:103F30000000001E001E0000000000000000000045
:103F40000000000000000000000000000000000071
:103F50000000000000000000000000000000000C55
:103F6000000C00000000000000000003000300033C
:103F70000006000600060006000C000C000C000CF9
:103F80000018001800180000000000000000001ECB
:103F9000003F0033806180618061806D806D806151
:103FA000806180610033003F001E000000000000BF
:103FB00000000006000E001E003600260006000667
:103FC00000060006000600060006000600060000C7
:103FD000000000000000001E003F807380618061CF
:103FE000800100030006000C001800300060807F94
:103FF000807F0000000000000000001C003E006305
:1040000000630003000E000E000380018001806148
:104010008073003F001E000000000000000000064A
:10402000000E000E001E001E001600360036006650
:10403000807F807F00060006000600000000000070
:104040000000007F007F006000600060006E007F65
:1040500080638001800180618073003F001E00004A
:10406000000000000000001E003F803380610060FF
:10407000006E007F80738061806180618033003FCB
:10408000001E0000000000000000807F807F800193
:104090000003000300060006000C000C000C0008E2
:1040A0000018001800180000000000000000001EAA
:1040B000003F8063806180610021001E003F8061BD
:1040C000806180618061003F001E000000000000F0
:1040D0000000001E003F007380618061806180737A
:1040E000803F801D800180610073003F001E000042
:1040F0000000000000000000000000000000000CB4
:10410000000C000000000000000000000000000C97
:10411000000C000000000000000000000000000093
:1041200000000000000C000C000000000000000077
:104130000000000C000C0004000400080000000057
:104140000000000080008003000E0038006000388E
:10415000000E80038000000000000000000000004E
:1041600000000000000000000000807F807F000051
:104170000000807F807F0000000000000000000041
:10418000000000000000000000000000004000707F
:10419000001C000780010007001C007000400000A8
:1041A00000000000000000000000001F803FC07100
:1041B000C060C000C00180030007000E000C000CAE
:1041C0000000000C000C0000000000000000001EB9
:1041D000003F803180718063806F806D806D806F63
:1041E000806700600032003E001C000000000000FC
:1041F0000000000E000E001B001B001B001B803186
:104200008031803F803F8031C060C060C06000006E
:10421000000000000000007C007E0063006300637B
:104220000063007E007E0063806180618063007FA8
:10423000007E0000000000000000001E003F8031F2
:10424000806100600060006000600060006080616C
:104250008031003F001E0000000000000000007CD4
:10426000007F006380638061806180618061806124
:10427000806100630063007E007C0000000000009D
:104280000000807F807F0060006000600060007F31
:10429000007F0060006000600060807F807F000021
:1042A000000000000000807F807F006000600060F0
:1042B0000060007F007F00600060006000600060C0
:1042C00000600000000000000000001E003F803180
:1042D0008061006000600060806380638061806155
:1042E0008031803F001E000000000000000080615F
:1042F00080618061806180618061807F807F80617A
:104300008061806180618061806100000000000048
:104310000000003F003F000C000C000C000C000CE3
:10432000000C000C000C000C000C003F003F0000D3
:1043300000000000000080018001800180018001F8
:104340008001800180018001806180618073003F75
:10435000001E0000000000000000C06080610063DB
:1043600000660066006C0078007C006600660063F2
:1043700080618061C06000000000000000000060FB
:10438000006000600060006000600060006000602D
:10439000006000600060807F807F000000000000FF
:1043A0000000C071C071C07BC07AC06AC06AC06EB4
:1043B000C064C060C060C060C060C060C060000019
:1043C0000000000000008071807180798079807920
:1043D000806D806D806D8065806780678067806399
:1043E00080630000000000000000001E003F00335A
:1043F00080618061806180618061806180618061B5
:104400000033003F001E0000000000000000007E9E
:10441000007F80638061806180618063007F007EB7
:1044200000600060006000600060000000000000AC
:104430000000001E003F0033806180618061806168
:1044400080618061806580670033803F401E00008E
:10445000000000000000007E007F806380618061BA
:104460008063007F007E006600630063806180617E
:10447000C0600000000000000000000E001F80313E
:10448000803100300038001E0007800380618061A9
:104490008031003F001E0000000000000000C0FF4F
:1044A000C0FF000C000C000C000C000C000C000CF9
:1044B000000C000C000C000C000C000000000000C0
:1044C00000008061806180618061806180618061C5
:1044D00080618061806180618073003F001E000008
:1044E000000000000000C060C060C060803180310A
:1044F0008031001B001B001B001B000E000E000E75
:1045000000040000000000000000C0C0C0C0C0C027
:10451000C0C0C0C0C0CC804C804C805E80528052F5
:104520008073806180610000000000000000C0C056
:10453000806080610033003B001E000C000C001EF8
:10454000001F003B80718061C0C0000000000000BF
:104550000000C0C08061806100330033001E001E77
:10456000000C000C000C000C000C000C000C0000F7
:10457000000000000000803F803F80010003000336
:104580000006000C000C0018001800300060807F4E
:10459000807F000000000000000F000F000C000CE6
:1045A000000C000C000C000C000C000C000C000CAB
:1045B000000C000C000C000C000F000F0000001895
:1045C00000180018000C000C000C000C000600067F
:1045D00000060006000300030003000000000000C6
:1045E000001E001E0006000600060006000600066B
:1045F000000600060006000600060006000600068B
:10460000001E001E0000000C000C001E00120033F3
:1046100000338061806100000000000000000000A5
:10462000000000000000000000000000000000008A
:10463000000000000000000000000000000000007A
:104640000000000000000000E0FF00000000003853
:104650000018000C00000000000000000000000036
:10466000000000000000000000000000000000004A
:1046700000000000000000000000001F803F80617B
:104680008001801F803F80618063807FC038000090
:104690000000000000000060006000600060006E2C
:1046A000007F807380618061806180618073007FA2
:1046B000006E00000000000000000000000000008C
:1046C0000000001E003F8073806100600060806118
:1046D0008073003F001E0000000000000000800109
:1046E000800180018001801D803F80738061806136
:1046F000806180618073803F801D000000000000A9
:1047000000000000000000000000001E003F0073D9
:104710008061807F807F00608071003F001E00000C
:10472000000000000000C007C00F000C000C807FDC
:10473000807F000C000C000C000C000C000C000C26
:10474000000C00000000000000000000000000005D
:10475000801D803F80738061806180618061807393
:10476000803F801D80018063007F003E000000606C
:10477000006000600060006F807F807180618061F8
:1047800080618061806180618061000000000000C4
:1047900000000006000600000000003E003E00068B
:1047A00000060006000600060006000600060000DF
:1047B000000000000006000600000000003E003E71
:1047C00000060006000600060006000600060006B9
:1047D00000060046007E003C0000006000600060B3
:1047E0000060806100630066006C007C00760063FE
:1047F00000638061C0600000000000000000003E17
:10480000003E000600060006000600060006000640
:10481000000600060006000600060000000000007A
:104820000000000000000000000080DDC0FFC0CEDE
:10483000C0CCC0CCC0CCC0CCC0CCC0CCC0CC0000A4
:104840000000000000000000000000000000006FF9
:10485000807F807180618061806180618061806122
:104860008061000000000000000000000000000067
:104870000000001E003F8073806180618061806164
:104880008073003F001E00000000000000000000D8
:1048900000000000006E007F807380618061806195
:1048A00080618073007F006E0060006000600060C7
:1048B0000000000000000000801D803F80738061C8
:1048C0008061806180618073803F801D80018001F4
:1048D000800180010000000000000000000000676F
:1048E000803F0039003000300030003000300030B0
:1048F0000030000000000000000000000000000088
:104900000000001E803F80610060007F803F8001CA
:104910008061007F001E0000000000000000000019
:10492000000800180018007F007F00180018001809
:10493000001800180018801F800F00000000000001
:1049400000000000000000000000806180618061C4
:1049500080618061806180618063807F803D000034
:104960000000000000000000000000000000C06027
:10497000803180318031001B001B001B000E000EB7
:104980000006000000000000000000000000000021
:10499000000080DD80DD80DD00550055005500778A
:1049A000007700220022000000000000000000004C
:1049B000000000000000806100330033001E000C86
:1049C000000C001E00330033806100000000000076
:1049D0000000000000000000806180618031003331
:1049E0000033001B001B001B000E000E000E001CFD
:1049F000007C007000000000000000000000C07F8C
:104A0000C07F800100030006000C00180030C07F4A
:104A1000C07F000000000000800380070006000641
:104A2000000600060006000E001C001C000E00061A
:104A30000006000600060006800780030006000648
:104A40000006000600060006000600060006000636
:104A50000006000600060006000600060006000626
:104A60000038003C000C000C000C000C000C000E88
:104A700000070007000E000C000C000C000C000CDE
:104A8000003C0038000000000000000000000000B2
:104A900000008038807F0047000000000000000018
:104AA00000000000000000000102020304050607E8
:104AB00008090A0B0C0D0E0F10104F4C4544204FE7
:104AC00046460000E84A00080000002018000000E8
:104AD00050010008004B000818000020B00B000037
:104AE00070010008000000000100F4010100000056
:104AF000100000000B1200004C3D000800127A006C
:04000005080000ED02
:00000001FF
